:100000000C9462000C948A000C948A000C948A0070
:100010000C948A000C948A000C948A000C948A0038
:100020000C948A000C948A000C948A000C948A0028
:100030000C948A000C948A000C948A000C948A0018
:100040000C9456020C948A000C94C6020C94A002E4
:100050000C948A000C948A000C948A000C948A00F8
:100060000C948A000C948A000000000024002700F1
:100070002A0000000000250028002B0000000000DE
:1000800023002600290004040404040404040202DA
:100090000202020203030303030301020408102007
:1000A0004080010204081020010204081020000012
:1000B0000008000201000003040700000000000027
:1000C0000000F80211241FBECFEFD8E0DEBFCDBF85
:1000D00011E0A0E0B1E0EEE2FAE002C005900D927E
:1000E000A631B107D9F721E0A6E1B1E001C01D9228
:1000F000AC3CB207E1F710E0C2E6D0E004C02197C3
:10010000FE010E940A05C136D107C9F70E946203A9
:100110000C9415050C940000833081F028F4813094
:1001200099F08230A1F008958730A9F08830B9F0B5
:100130008430D1F4809180008F7D03C08091800055
:100140008F7780938000089584B58F7702C084B53F
:100150008F7D84BD08958091B0008F7703C080911A
:10016000B0008F7D8093B0000895CF93DF93282F48
:1001700030E0F901E255FF4F8491F901E656FF4F57
:10018000D491F901EA57FF4FC491CC2391F081112A
:100190000E948C00EC2FF0E0EE0FFF1FE458FF4FA1
:1001A000A591B491EC91ED2381E090E021F480E001
:1001B00002C080E090E0DF91CF9108951F93CF932C
:1001C000DF93282F30E0F901E255FF4F8491F901C8
:1001D000E656FF4FD491F901EA57FF4FC491CC2363
:1001E000C9F0162F81110E948C00EC2FF0E0EE0F69
:1001F000FF1FEE58FF4FA591B4918FB7F8941111DE
:1002000005C09C91ED2FE095E92302C0EC91ED2B08
:10021000EC938FBFDF91CF911F910895CF93DF9320
:1002200090E0FC01E656FF4F2491FC01EA57FF4F96
:100230008491882361F190E0880F991FFC01E859AF
:10024000FF4FC591D491FC01EE58FF4FA591B49199
:10025000611109C09FB7F894888120958223888313
:10026000EC912E230BC0623061F49FB7F894388173
:10027000822F809583238883EC912E2B2C939FBF14
:1002800006C08FB7F894E8812E2B28838FBFDF91AB
:10029000CF910895CF92DF92EF92FF920F931F9329
:1002A000CF93DF936C017A018B01C0E0D0E0CE15D3
:1002B000DF0589F0D8016D918D01D601ED91FC919A
:1002C0000190F081E02DC6010995892B11F47E0182
:1002D00002C02196ECCFC701DF91CF911F910F9102
:1002E000FF90EF90DF90CF900895089580E090E028
:1002F0000895FC01538D448D252F30E0842F90E02C
:10030000821B930B541710F0CF9608950197089510
:10031000FC01918D828D981761F0828DDF01A80F0D
:10032000B11D5D968C91928D9F5F9F73928F90E02F
:1003300008958FEF9FEF0895FC01918D828D98179E
:1003400031F0828DE80FF11D858D90E008958FEFDB
:100350009FEF0895FC01918D228D892F90E0805CA4
:100360009F4F821B91098F739927089581E291E035
:100370000E94AA0121E0892B09F420E0822F089530
:10038000FC01848DDF01A80FB11DA35ABF4F2C9132
:10039000848D90E001968F739927848FA689B78901
:1003A0002C93A089B1898C9180648C93938D848DDA
:1003B000981306C00288F389E02D80818F7D8083A9
:1003C0000895EF92FF920F931F93CF93DF93EC0169
:1003D00081E0888F9B8D8C8D981305C0E889F98901
:1003E000808185FD24C0F62E0B8D10E00F5F1F4F1E
:1003F0000F731127E02E8C8DE8120CC00FB607FC8E
:10040000FACFE889F989808185FFF5CFCE010E9476
:10041000C001F1CF8B8DFE01E80FF11DE35AFF4FB4
:10042000F0820B8FEA89FB898081806207C0EE89A8
:10043000FF896083E889F98980818064808381E015
:1004400090E0DF91CF911F910F91FF90EF90089571
:10045000CF93DF93EC01888D8823C9F0EA89FB896B
:10046000808185FD05C0A889B9898C9186FD0FC062
:100470000FB607FCF5CF808185FFF2CFA889B98937
:100480008C9185FFEDCFCE010E94C001E7CFDF91B7
:10049000CF91089580E090E0892B29F00E94B60169
:1004A00081110C94000008950E9410051F920F9274
:1004B0000FB60F9211242F933F938F939F93AF9377
:1004C000BF9380911D0190911E01A0911F01B091D9
:1004D000200130911C0123E0230F2D3720F40196D9
:1004E000A11DB11D05C026E8230F0296A11DB11D57
:1004F00020931C0180931D0190931E01A0931F0166
:10050000B09320018091180190911901A0911A01D6
:10051000B0911B010196A11DB11D8093180190930C
:100520001901A0931A01B0931B01BF91AF919F9144
:100530008F913F912F910F900FBE0F901F901895A4
:100540001F920F920FB60F9211242F933F934F9348
:100550005F936F937F938F939F93AF93BF93EF932B
:10056000FF9381E291E00E94C001FF91EF91BF9162
:10057000AF919F918F917F916F915F914F913F913B
:100580002F910F900FBE0F901F9018951F920F92F2
:100590000FB60F9211242F938F939F93EF93FF9396
:1005A000E0913101F09132018081E0913701F091C9
:1005B000380182FD12C0908180913A018F5F8F7364
:1005C00020913B01821751F0E0913A01F0E0EF5D9C
:1005D000FE4F958F80933A0101C08081FF91EF918A
:1005E0009F918F912F910F900FBE0F901F90189594
:1005F000CF93DF93E1E2F1E01382128288EE93E081
:10060000A0E0B0E084839583A683B78384E091E083
:100610009183808385EC90E09587848784EC90E0DB
:100620009787868780EC90E0918B808B81EC90E0BF
:10063000938B828B82EC90E0958B848B86EC90E0A0
:10064000978B868B118E128E138E148ECEEBD1E08B
:1006500082E090E09983888383E090E09B838A83A3
:1006600084E090E09D838C8385E090E09F838E837F
:1006700086E090E09987888787E090E09B878A876B
:1006800088E090E09D878C8760E082E00E940E0108
:1006900060E08A810E940E0160E08C810E940E0160
:1006A00060E08E810E940E0160E088850E940E014C
:1006B00060E08C850E940E0161E08A85DF91CF9118
:1006C0000C940E01CF93DF93CDB7DEB7A1970FB691
:1006D000F894DEBF0FBECDBF789484B5826084BD30
:1006E00084B5816084BD85B5826085BD85B5816036
:1006F00085BD80916E00816080936E0010928100B4
:10070000809181008260809381008091810081606E
:10071000809381008091800081608093800080912F
:10072000B10084608093B1008091B00081608093BB
:10073000B00080917A00846080937A0080917A0082
:10074000826080937A0080917A00816080937A0041
:1007500080917A00806880937A001092C100E091C5
:100760003101F091320182E08083E0912D01F0911E
:100770002E011082E0912F01F091300180E1808301
:1007800010923901E0913501F091360186E08083C5
:10079000E0913301F0913401808180618083E091A8
:1007A0003301F0913401808188608083E0913301CE
:1007B000F0913401808180688083E0913301F09171
:1007C000340180818F7D80838BEBC82E82E1D82E0F
:1007D0009AE0892E912CA12CB12C60E08091C80167
:1007E0000E94DE008091C6010E94B50001E010E089
:1007F000892B11F000E010E08091CA010E94B50041
:10080000892B19F080E090E002C080E092E07C014A
:10081000E00EF11E8091BE010E94B500892B19F0F7
:1008200040E050E002C040E050E1E40EF51E80914F
:10083000C0010E94B500892B19F020E030E002C011
:1008400020E030E2E20EF31EC6010197F1F761E00D
:100850008091C8010E94DE008091C2010E94B50013
:10086000892B19F080E090E002C080E090E4E80E6F
:10087000F91E8091C4010E94B500892B19F040E057
:1008800050E002C040E050E8E40EF51E8091C60141
:100890000E94B500892B19F020E030E002C022E070
:1008A00030E0E20EF31E8091CA010E94B500892B50
:1008B00019F080E090E002C084E090E0E80EF91EBC
:1008C00060E08091C8010E94DE00C6010197F1F747
:1008D00061E08091C8010E94DE0060E08091C80163
:1008E0000E94DE0061E08091C8010E94DE008091DC
:1008F000BE010E94B500892B19F040E050E002C013
:1009000040E450E0E40EF51E8091C0010E94B50065
:10091000892B19F020E030E002C020E230E0E20E46
:10092000F31E8091C2010E94B500892B19F080E06E
:1009300090E002C080E190E0E80EF91E8091C401D1
:100940000E94B500892B19F080E090E002C080E899
:1009500090E0E80EF91E60E08091C8010E94DE0080
:1009600061E08091C8010E94DE00970140E050E004
:1009700019A28E010F5D1F4FCA01B901A501940193
:100980000E94E804605DF80162938F012115310532
:100990004105510589F7309761F001900020E9F792
:1009A0003197AF01401B510BB80181E291E00E94E9
:1009B0004A0142E050E062E171E081E291E00E9490
:1009C0004A01F0921701E09216010E944A0205CFF7
:1009D000A1E21A2EAA1BBB1BFD010DC0AA1FBB1F43
:1009E000EE1FFF1FA217B307E407F50720F0A21BB5
:1009F000B30BE40BF50B661F771F881F991F1A9422
:100A000069F760957095809590959B01AC01BD014B
:100A1000CF010895EE0FFF1F0590F491E02D09948A
:0E0A200081E090E0F8940C941505F894FFCF57
:100A2E0000000000E1014A0179012802AA018801B3
:060A3E009C010D0A0000FE
:00000001FF
